{
  "_format": "hh-sol-artifact-1",
  "contractName": "NFTFactory",
  "sourceName": "contracts/NFTFactory.sol",
  "abi": [
    {
      "anonymous": false,
      "inputs": [
        {
          "indexed": true,
          "internalType": "address",
          "name": "contractAddress",
          "type": "address"
        }
      ],
      "name": "ContractDeployed",
      "type": "event"
    },
    {
      "inputs": [
        {
          "internalType": "string",
          "name": "name",
          "type": "string"
        },
        {
          "internalType": "string",
          "name": "symbol",
          "type": "string"
        },
        {
          "internalType": "string",
          "name": "baseURI",
          "type": "string"
        }
      ],
      "name": "createNFTContract",
      "outputs": [],
      "stateMutability": "nonpayable",
      "type": "function"
    },
    {
      "inputs": [
        {
          "internalType": "uint256",
          "name": "",
          "type": "uint256"
        }
      ],
      "name": "deployedContracts",
      "outputs": [
        {
          "internalType": "address",
          "name": "",
          "type": "address"
        }
      ],
      "stateMutability": "view",
      "type": "function"
    },
    {
      "inputs": [],
      "name": "getDeployedContracts",
      "outputs": [
        {
          "internalType": "address[]",
          "name": "",
          "type": "address[]"
        }
      ],
      "stateMutability": "view",
      "type": "function"
    }
  ],
  "bytecode": "0x608060405234801561001057600080fd5b50613a02806100206000396000f3fe60806040523480156200001157600080fd5b5060043610620000465760003560e01c80631271acd3146200004b5780639ad1ee10146200006b578063aa9a068f14620000a1575b600080fd5b62000069600480360381019062000063919062000404565b620000c3565b005b620000896004803603810190620000839190620004f8565b620001b0565b6040516200009891906200056f565b60405180910390f35b620000ab620001f0565b604051620000ba91906200065a565b60405180910390f35b6000838383604051620000d69062000280565b620000e49392919062000707565b604051809103906000f08015801562000101573d6000803e3d6000fd5b5090506000819080600181540180825580915050600190039060005260206000200160009091909190916101000a81548173ffffffffffffffffffffffffffffffffffffffff021916908373ffffffffffffffffffffffffffffffffffffffff1602179055508073ffffffffffffffffffffffffffffffffffffffff167f8ffcdc15a283d706d38281f500270d8b5a656918f555de0913d7455e3e6bc1bf60405160405180910390a250505050565b60008181548110620001c157600080fd5b906000526020600020016000915054906101000a900473ffffffffffffffffffffffffffffffffffffffff1681565b606060008054806020026020016040519081016040528092919081815260200182805480156200027657602002820191906000526020600020905b8160009054906101000a900473ffffffffffffffffffffffffffffffffffffffff1673ffffffffffffffffffffffffffffffffffffffff16815260200190600101908083116200022b575b5050505050905090565b613273806200075a83390190565b6000604051905090565b600080fd5b600080fd5b600080fd5b600080fd5b6000601f19601f8301169050919050565b7f4e487b7100000000000000000000000000000000000000000000000000000000600052604160045260246000fd5b620002f782620002ac565b810181811067ffffffffffffffff82111715620003195762000318620002bd565b5b80604052505050565b60006200032e6200028e565b90506200033c8282620002ec565b919050565b600067ffffffffffffffff8211156200035f576200035e620002bd565b5b6200036a82620002ac565b9050602081019050919050565b82818337600083830152505050565b60006200039d620003978462000341565b62000322565b905082815260208101848484011115620003bc57620003bb620002a7565b5b620003c984828562000377565b509392505050565b600082601f830112620003e957620003e8620002a2565b5b8135620003fb84826020860162000386565b91505092915050565b60008060006060848603121562000420576200041f62000298565b5b600084013567ffffffffffffffff8111156200044157620004406200029d565b5b6200044f86828701620003d1565b935050602084013567ffffffffffffffff8111156200047357620004726200029d565b5b6200048186828701620003d1565b925050604084013567ffffffffffffffff811115620004a557620004a46200029d565b5b620004b386828701620003d1565b9150509250925092565b6000819050919050565b620004d281620004bd565b8114620004de57600080fd5b50565b600081359050620004f281620004c7565b92915050565b60006020828403121562000511576200051062000298565b5b60006200052184828501620004e1565b91505092915050565b600073ffffffffffffffffffffffffffffffffffffffff82169050919050565b600062000557826200052a565b9050919050565b62000569816200054a565b82525050565b60006020820190506200058660008301846200055e565b92915050565b600081519050919050565b600082825260208201905092915050565b6000819050602082019050919050565b620005c3816200054a565b82525050565b6000620005d78383620005b8565b60208301905092915050565b6000602082019050919050565b6000620005fd826200058c565b62000609818562000597565b93506200061683620005a8565b8060005b838110156200064d578151620006318882620005c9565b97506200063e83620005e3565b9250506001810190506200061a565b5085935050505092915050565b60006020820190508181036000830152620006768184620005f0565b905092915050565b600081519050919050565b600082825260208201905092915050565b60005b83811015620006ba5780820151818401526020810190506200069d565b60008484015250505050565b6000620006d3826200067e565b620006df818562000689565b9350620006f18185602086016200069a565b620006fc81620002ac565b840191505092915050565b60006060820190508181036000830152620007238186620006c6565b90508181036020830152620007398185620006c6565b905081810360408301526200074f8184620006c6565b905094935050505056fe60806040523480156200001157600080fd5b5060405162003273380380620032738339818101604052810190620000379190620002e6565b828281600290816200004a9190620005ea565b5080600390816200005c9190620005ea565b506200006d6200014e60201b60201c565b600081905550505033600860006101000a81548173ffffffffffffffffffffffffffffffffffffffff021916908373ffffffffffffffffffffffffffffffffffffffff1602179055508060099081620000c79190620005ea565b50600860009054906101000a900473ffffffffffffffffffffffffffffffffffffffff1673ffffffffffffffffffffffffffffffffffffffff16600073ffffffffffffffffffffffffffffffffffffffff167f8be0079c531659141344cd1fd0a4f28419497f9722a3daafe3b4186f6b6457e060405160405180910390a3505050620006d1565b600090565b6000604051905090565b600080fd5b600080fd5b600080fd5b600080fd5b6000601f19601f8301169050919050565b7f4e487b7100000000000000000000000000000000000000000000000000000000600052604160045260246000fd5b620001bc8262000171565b810181811067ffffffffffffffff82111715620001de57620001dd62000182565b5b80604052505050565b6000620001f362000153565b9050620002018282620001b1565b919050565b600067ffffffffffffffff82111562000224576200022362000182565b5b6200022f8262000171565b9050602081019050919050565b60005b838110156200025c5780820151818401526020810190506200023f565b60008484015250505050565b60006200027f620002798462000206565b620001e7565b9050828152602081018484840111156200029e576200029d6200016c565b5b620002ab8482856200023c565b509392505050565b600082601f830112620002cb57620002ca62000167565b5b8151620002dd84826020860162000268565b91505092915050565b6000806000606084860312156200030257620003016200015d565b5b600084015167ffffffffffffffff81111562000323576200032262000162565b5b6200033186828701620002b3565b935050602084015167ffffffffffffffff81111562000355576200035462000162565b5b6200036386828701620002b3565b925050604084015167ffffffffffffffff81111562000387576200038662000162565b5b6200039586828701620002b3565b9150509250925092565b600081519050919050565b7f4e487b7100000000000000000000000000000000000000000000000000000000600052602260045260246000fd5b60006002820490506001821680620003f257607f821691505b602082108103620004085762000407620003aa565b5b50919050565b60008190508160005260206000209050919050565b60006020601f8301049050919050565b600082821b905092915050565b600060088302620004727fffffffffffffffffffffffffffffffffffffffffffffffffffffffffffffffff8262000433565b6200047e868362000433565b95508019841693508086168417925050509392505050565b6000819050919050565b6000819050919050565b6000620004cb620004c5620004bf8462000496565b620004a0565b62000496565b9050919050565b6000819050919050565b620004e783620004aa565b620004ff620004f682620004d2565b84845462000440565b825550505050565b600090565b6200051662000507565b62000523818484620004dc565b505050565b5b818110156200054b576200053f6000826200050c565b60018101905062000529565b5050565b601f8211156200059a5762000564816200040e565b6200056f8462000423565b810160208510156200057f578190505b620005976200058e8562000423565b83018262000528565b50505b505050565b600082821c905092915050565b6000620005bf600019846008026200059f565b1980831691505092915050565b6000620005da8383620005ac565b9150826002028217905092915050565b620005f5826200039f565b67ffffffffffffffff81111562000611576200061062000182565b5b6200061d8254620003d9565b6200062a8282856200054f565b600060209050601f8311600181146200066257600084156200064d578287015190505b620006598582620005cc565b865550620006c9565b601f19841662000672866200040e565b60005b828110156200069c5784890151825560018201915060208501945060208101905062000675565b86831015620006bc5784890151620006b8601f891682620005ac565b8355505b6001600288020188555050505b505050505050565b612b9280620006e16000396000f3fe608060405234801561001057600080fd5b50600436106101165760003560e01c80636352211e116100a2578063a22cb46511610071578063a22cb465146102df578063b88d4fde146102fb578063c87b56dd14610317578063e985e9c514610347578063f2fde38b1461037757610116565b80636352211e1461024357806370a08231146102735780638da5cb5b146102a357806395d89b41146102c157610116565b806318160ddd116100e957806318160ddd146101b557806323b872dd146101d357806340c10f19146101ef57806342842e0e1461020b57806355f804b31461022757610116565b806301ffc9a71461011b57806306fdde031461014b578063081812fc14610169578063095ea7b314610199575b600080fd5b61013560048036038101906101309190611e40565b610393565b6040516101429190611e88565b60405180910390f35b610153610475565b6040516101609190611f33565b60405180910390f35b610183600480360381019061017e9190611f8b565b610507565b6040516101909190611ff9565b60405180910390f35b6101b360048036038101906101ae9190612040565b610583565b005b6101bd610687565b6040516101ca919061208f565b60405180910390f35b6101ed60048036038101906101e891906120aa565b61069e565b005b61020960048036038101906102049190612040565b6106ae565b005b610225600480360381019061022091906120aa565b61074c565b005b610241600480360381019061023c9190612232565b61076c565b005b61025d60048036038101906102589190611f8b565b61080f565b60405161026a9190611ff9565b60405180910390f35b61028d6004803603810190610288919061227b565b610825565b60405161029a919061208f565b60405180910390f35b6102ab6108f4565b6040516102b89190611ff9565b60405180910390f35b6102c961091e565b6040516102d69190611f33565b60405180910390f35b6102f960048036038101906102f491906122d4565b6109b0565b005b610315600480360381019061031091906123b5565b610b27565b005b610331600480360381019061032c9190611f8b565b610b9f565b60405161033e9190611f33565b60405180910390f35b610361600480360381019061035c9190612438565b610c3d565b60405161036e9190611e88565b60405180910390f35b610391600480360381019061038c919061227b565b610cd1565b005b60007f80ac58cd000000000000000000000000000000000000000000000000000000007bffffffffffffffffffffffffffffffffffffffffffffffffffffffff1916827bffffffffffffffffffffffffffffffffffffffffffffffffffffffff1916148061045e57507f5b5e139f000000000000000000000000000000000000000000000000000000007bffffffffffffffffffffffffffffffffffffffffffffffffffffffff1916827bffffffffffffffffffffffffffffffffffffffffffffffffffffffff1916145b8061046e575061046d82610e90565b5b9050919050565b606060028054610484906124a7565b80601f01602080910402602001604051908101604052809291908181526020018280546104b0906124a7565b80156104fd5780601f106104d2576101008083540402835291602001916104fd565b820191906000526020600020905b8154815290600101906020018083116104e057829003601f168201915b5050505050905090565b600061051282610efa565b610548576040517fcf4700e400000000000000000000000000000000000000000000000000000000815260040160405180910390fd5b6006600083815260200190815260200160002060009054906101000a900473ffffffffffffffffffffffffffffffffffffffff169050919050565b600061058e8261080f565b90508073ffffffffffffffffffffffffffffffffffffffff168373ffffffffffffffffffffffffffffffffffffffff16036105f5576040517f943f7b8c00000000000000000000000000000000000000000000000000000000815260040160405180910390fd5b8073ffffffffffffffffffffffffffffffffffffffff16610614610f48565b73ffffffffffffffffffffffffffffffffffffffff1614610677576106408161063b610f48565b610c3d565b610676576040517fcfb3b94200000000000000000000000000000000000000000000000000000000815260040160405180910390fd5b5b610682838383610f50565b505050565b6000610691611002565b6001546000540303905090565b6106a9838383611007565b505050565b600860009054906101000a900473ffffffffffffffffffffffffffffffffffffffff1673ffffffffffffffffffffffffffffffffffffffff163373ffffffffffffffffffffffffffffffffffffffff161461073e576040517f08c379a00000000000000000000000000000000000000000000000000000000081526004016107359061254a565b60405180910390fd5b61074882826114bb565b5050565b61076783838360405180602001604052806000815250610b27565b505050565b600860009054906101000a900473ffffffffffffffffffffffffffffffffffffffff1673ffffffffffffffffffffffffffffffffffffffff163373ffffffffffffffffffffffffffffffffffffffff16146107fc576040517f08c379a00000000000000000000000000000000000000000000000000000000081526004016107f39061254a565b60405180910390fd5b806009908161080b9190612716565b5050565b600061081a82611795565b600001519050919050565b60008073ffffffffffffffffffffffffffffffffffffffff168273ffffffffffffffffffffffffffffffffffffffff160361088c576040517f8f4eb60400000000000000000000000000000000000000000000000000000000815260040160405180910390fd5b600560008373ffffffffffffffffffffffffffffffffffffffff1673ffffffffffffffffffffffffffffffffffffffff16815260200190815260200160002060000160009054906101000a900467ffffffffffffffff1667ffffffffffffffff169050919050565b6000600860009054906101000a900473ffffffffffffffffffffffffffffffffffffffff16905090565b60606003805461092d906124a7565b80601f0160208091040260200160405190810160405280929190818152602001828054610959906124a7565b80156109a65780601f1061097b576101008083540402835291602001916109a6565b820191906000526020600020905b81548152906001019060200180831161098957829003601f168201915b5050505050905090565b6109b8610f48565b73ffffffffffffffffffffffffffffffffffffffff168273ffffffffffffffffffffffffffffffffffffffff1603610a1c576040517fb06307db00000000000000000000000000000000000000000000000000000000815260040160405180910390fd5b8060076000610a29610f48565b73ffffffffffffffffffffffffffffffffffffffff1673ffffffffffffffffffffffffffffffffffffffff16815260200190815260200160002060008473ffffffffffffffffffffffffffffffffffffffff1673ffffffffffffffffffffffffffffffffffffffff16815260200190815260200160002060006101000a81548160ff0219169083151502179055508173ffffffffffffffffffffffffffffffffffffffff16610ad6610f48565b73ffffffffffffffffffffffffffffffffffffffff167f17307eab39ab6107e8899845ad3d59bd9653f200f220920489ca2b5937696c3183604051610b1b9190611e88565b60405180910390a35050565b610b32848484611007565b610b518373ffffffffffffffffffffffffffffffffffffffff16611a20565b15610b9957610b6284848484611a43565b610b98576040517fd1a57ed600000000000000000000000000000000000000000000000000000000815260040160405180910390fd5b5b50505050565b6060610baa82610efa565b610be0576040517fa14c4b5000000000000000000000000000000000000000000000000000000000815260040160405180910390fd5b6000610bea611b93565b90506000815103610c0a5760405180602001604052806000815250610c35565b80610c1484611c25565b604051602001610c25929190612824565b6040516020818303038152906040525b915050919050565b6000600760008473ffffffffffffffffffffffffffffffffffffffff1673ffffffffffffffffffffffffffffffffffffffff16815260200190815260200160002060008373ffffffffffffffffffffffffffffffffffffffff1673ffffffffffffffffffffffffffffffffffffffff16815260200190815260200160002060009054906101000a900460ff16905092915050565b600860009054906101000a900473ffffffffffffffffffffffffffffffffffffffff1673ffffffffffffffffffffffffffffffffffffffff163373ffffffffffffffffffffffffffffffffffffffff1614610d61576040517f08c379a0000000000000000000000000000000000000000000000000000000008152600401610d589061254a565b60405180910390fd5b600073ffffffffffffffffffffffffffffffffffffffff168173ffffffffffffffffffffffffffffffffffffffff1603610dd0576040517f08c379a0000000000000000000000000000000000000000000000000000000008152600401610dc7906128ba565b60405180910390fd5b8073ffffffffffffffffffffffffffffffffffffffff16600860009054906101000a900473ffffffffffffffffffffffffffffffffffffffff1673ffffffffffffffffffffffffffffffffffffffff167f8be0079c531659141344cd1fd0a4f28419497f9722a3daafe3b4186f6b6457e060405160405180910390a380600860006101000a81548173ffffffffffffffffffffffffffffffffffffffff021916908373ffffffffffffffffffffffffffffffffffffffff16021790555050565b60007f01ffc9a7000000000000000000000000000000000000000000000000000000007bffffffffffffffffffffffffffffffffffffffffffffffffffffffff1916827bffffffffffffffffffffffffffffffffffffffffffffffffffffffff1916149050919050565b600081610f05611002565b11158015610f14575060005482105b8015610f41575060046000838152602001908152602001600020600001601c9054906101000a900460ff16155b9050919050565b600033905090565b826006600084815260200190815260200160002060006101000a81548173ffffffffffffffffffffffffffffffffffffffff021916908373ffffffffffffffffffffffffffffffffffffffff160217905550818373ffffffffffffffffffffffffffffffffffffffff168273ffffffffffffffffffffffffffffffffffffffff167f8c5be1e5ebec7d5bd14f71427d1e84f3dd0314c0f7b2291e5b200ac8c7c3b92560405160405180910390a4505050565b600090565b600061101282611795565b90508373ffffffffffffffffffffffffffffffffffffffff16816000015173ffffffffffffffffffffffffffffffffffffffff161461107d576040517fa114810000000000000000000000000000000000000000000000000000000000815260040160405180910390fd5b60008473ffffffffffffffffffffffffffffffffffffffff1661109e610f48565b73ffffffffffffffffffffffffffffffffffffffff1614806110cd57506110cc856110c7610f48565b610c3d565b5b8061111257506110db610f48565b73ffffffffffffffffffffffffffffffffffffffff166110fa84610507565b73ffffffffffffffffffffffffffffffffffffffff16145b90508061114b576040517f59c896be00000000000000000000000000000000000000000000000000000000815260040160405180910390fd5b600073ffffffffffffffffffffffffffffffffffffffff168473ffffffffffffffffffffffffffffffffffffffff16036111b1576040517fea553b3400000000000000000000000000000000000000000000000000000000815260040160405180910390fd5b6111be8585856001611d85565b6111ca60008487610f50565b6001600560008773ffffffffffffffffffffffffffffffffffffffff1673ffffffffffffffffffffffffffffffffffffffff16815260200190815260200160002060000160008282829054906101000a900467ffffffffffffffff160392506101000a81548167ffffffffffffffff021916908367ffffffffffffffff1602179055506001600560008673ffffffffffffffffffffffffffffffffffffffff1673ffffffffffffffffffffffffffffffffffffffff16815260200190815260200160002060000160008282829054906101000a900467ffffffffffffffff160192506101000a81548167ffffffffffffffff021916908367ffffffffffffffff1602179055506000600460008581526020019081526020016000209050848160000160006101000a81548173ffffffffffffffffffffffffffffffffffffffff021916908373ffffffffffffffffffffffffffffffffffffffff160217905550428160000160146101000a81548167ffffffffffffffff021916908367ffffffffffffffff16021790555060006001850190506000600460008381526020019081526020016000209050600073ffffffffffffffffffffffffffffffffffffffff168160000160009054906101000a900473ffffffffffffffffffffffffffffffffffffffff1673ffffffffffffffffffffffffffffffffffffffff160361144957600054821461144857878160000160006101000a81548173ffffffffffffffffffffffffffffffffffffffff021916908373ffffffffffffffffffffffffffffffffffffffff16021790555084602001518160000160146101000a81548167ffffffffffffffff021916908367ffffffffffffffff1602179055505b5b505050828473ffffffffffffffffffffffffffffffffffffffff168673ffffffffffffffffffffffffffffffffffffffff167fddf252ad1be2c89b69c2b068fc378daa952ba7f163c4a11628f55a4df523b3ef60405160405180910390a46114b48585856001611d8b565b5050505050565b600080549050600073ffffffffffffffffffffffffffffffffffffffff168373ffffffffffffffffffffffffffffffffffffffff1603611527576040517f2e07630000000000000000000000000000000000000000000000000000000000815260040160405180910390fd5b60008203611561576040517fb562e8dd00000000000000000000000000000000000000000000000000000000815260040160405180910390fd5b61156e6000848385611d85565b81600560008573ffffffffffffffffffffffffffffffffffffffff1673ffffffffffffffffffffffffffffffffffffffff16815260200190815260200160002060000160008282829054906101000a900467ffffffffffffffff160192506101000a81548167ffffffffffffffff021916908367ffffffffffffffff16021790555081600560008573ffffffffffffffffffffffffffffffffffffffff1673ffffffffffffffffffffffffffffffffffffffff16815260200190815260200160002060000160088282829054906101000a900467ffffffffffffffff160192506101000a81548167ffffffffffffffff021916908367ffffffffffffffff160217905550826004600083815260200190815260200160002060000160006101000a81548173ffffffffffffffffffffffffffffffffffffffff021916908373ffffffffffffffffffffffffffffffffffffffff160217905550426004600083815260200190815260200160002060000160146101000a81548167ffffffffffffffff021916908367ffffffffffffffff1602179055506000819050600083820190505b818060010192508573ffffffffffffffffffffffffffffffffffffffff16600073ffffffffffffffffffffffffffffffffffffffff167fddf252ad1be2c89b69c2b068fc378daa952ba7f163c4a11628f55a4df523b3ef60405160405180910390a4808210611711578160008190555050506117906000848385611d8b565b505050565b61179d611d91565b6000829050806117ab611002565b116119e9576000548110156119e8576000600460008381526020019081526020016000206040518060600160405290816000820160009054906101000a900473ffffffffffffffffffffffffffffffffffffffff1673ffffffffffffffffffffffffffffffffffffffff1673ffffffffffffffffffffffffffffffffffffffff1681526020016000820160149054906101000a900467ffffffffffffffff1667ffffffffffffffff1667ffffffffffffffff16815260200160008201601c9054906101000a900460ff161515151581525050905080604001516119e657600073ffffffffffffffffffffffffffffffffffffffff16816000015173ffffffffffffffffffffffffffffffffffffffff16146118ca578092505050611a1b565b5b6001156119e557818060019003925050600460008381526020019081526020016000206040518060600160405290816000820160009054906101000a900473ffffffffffffffffffffffffffffffffffffffff1673ffffffffffffffffffffffffffffffffffffffff1673ffffffffffffffffffffffffffffffffffffffff1681526020016000820160149054906101000a900467ffffffffffffffff1667ffffffffffffffff1667ffffffffffffffff16815260200160008201601c9054906101000a900460ff1615151515815250509050600073ffffffffffffffffffffffffffffffffffffffff16816000015173ffffffffffffffffffffffffffffffffffffffff16146119e0578092505050611a1b565b6118cb565b5b505b5b6040517fdf2d9b4200000000000000000000000000000000000000000000000000000000815260040160405180910390fd5b919050565b6000808273ffffffffffffffffffffffffffffffffffffffff163b119050919050565b60008373ffffffffffffffffffffffffffffffffffffffff1663150b7a02611a69610f48565b8786866040518563ffffffff1660e01b8152600401611a8b949392919061292f565b6020604051808303816000875af1925050508015611ac757506040513d601f19601f82011682018060405250810190611ac49190612990565b60015b611b40573d8060008114611af7576040519150601f19603f3d011682016040523d82523d6000602084013e611afc565b606091505b506000815103611b38576040517fd1a57ed600000000000000000000000000000000000000000000000000000000815260040160405180910390fd5b805181602001fd5b63150b7a0260e01b7bffffffffffffffffffffffffffffffffffffffffffffffffffffffff1916817bffffffffffffffffffffffffffffffffffffffffffffffffffffffff191614915050949350505050565b606060098054611ba2906124a7565b80601f0160208091040260200160405190810160405280929190818152602001828054611bce906124a7565b8015611c1b5780601f10611bf057610100808354040283529160200191611c1b565b820191906000526020600020905b815481529060010190602001808311611bfe57829003601f168201915b5050505050905090565b606060008203611c6c576040518060400160405280600181526020017f30000000000000000000000000000000000000000000000000000000000000008152509050611d80565b600082905060005b60008214611c9e578080611c87906129ec565b915050600a82611c979190612a63565b9150611c74565b60008167ffffffffffffffff811115611cba57611cb9612107565b5b6040519080825280601f01601f191660200182016040528015611cec5781602001600182028036833780820191505090505b5090505b60008514611d7957600182611d059190612a94565b9150600a85611d149190612ac8565b6030611d209190612af9565b60f81b818381518110611d3657611d35612b2d565b5b60200101907effffffffffffffffffffffffffffffffffffffffffffffffffffffffffffff1916908160001a905350600a85611d729190612a63565b9450611cf0565b8093505050505b919050565b50505050565b50505050565b6040518060600160405280600073ffffffffffffffffffffffffffffffffffffffff168152602001600067ffffffffffffffff1681526020016000151581525090565b6000604051905090565b600080fd5b600080fd5b60007fffffffff0000000000000000000000000000000000000000000000000000000082169050919050565b611e1d81611de8565b8114611e2857600080fd5b50565b600081359050611e3a81611e14565b92915050565b600060208284031215611e5657611e55611dde565b5b6000611e6484828501611e2b565b91505092915050565b60008115159050919050565b611e8281611e6d565b82525050565b6000602082019050611e9d6000830184611e79565b92915050565b600081519050919050565b600082825260208201905092915050565b60005b83811015611edd578082015181840152602081019050611ec2565b60008484015250505050565b6000601f19601f8301169050919050565b6000611f0582611ea3565b611f0f8185611eae565b9350611f1f818560208601611ebf565b611f2881611ee9565b840191505092915050565b60006020820190508181036000830152611f4d8184611efa565b905092915050565b6000819050919050565b611f6881611f55565b8114611f7357600080fd5b50565b600081359050611f8581611f5f565b92915050565b600060208284031215611fa157611fa0611dde565b5b6000611faf84828501611f76565b91505092915050565b600073ffffffffffffffffffffffffffffffffffffffff82169050919050565b6000611fe382611fb8565b9050919050565b611ff381611fd8565b82525050565b600060208201905061200e6000830184611fea565b92915050565b61201d81611fd8565b811461202857600080fd5b50565b60008135905061203a81612014565b92915050565b6000806040838503121561205757612056611dde565b5b60006120658582860161202b565b925050602061207685828601611f76565b9150509250929050565b61208981611f55565b82525050565b60006020820190506120a46000830184612080565b92915050565b6000806000606084860312156120c3576120c2611dde565b5b60006120d18682870161202b565b93505060206120e28682870161202b565b92505060406120f386828701611f76565b9150509250925092565b600080fd5b600080fd5b7f4e487b7100000000000000000000000000000000000000000000000000000000600052604160045260246000fd5b61213f82611ee9565b810181811067ffffffffffffffff8211171561215e5761215d612107565b5b80604052505050565b6000612171611dd4565b905061217d8282612136565b919050565b600067ffffffffffffffff82111561219d5761219c612107565b5b6121a682611ee9565b9050602081019050919050565b82818337600083830152505050565b60006121d56121d084612182565b612167565b9050828152602081018484840111156121f1576121f0612102565b5b6121fc8482856121b3565b509392505050565b600082601f830112612219576122186120fd565b5b81356122298482602086016121c2565b91505092915050565b60006020828403121561224857612247611dde565b5b600082013567ffffffffffffffff81111561226657612265611de3565b5b61227284828501612204565b91505092915050565b60006020828403121561229157612290611dde565b5b600061229f8482850161202b565b91505092915050565b6122b181611e6d565b81146122bc57600080fd5b50565b6000813590506122ce816122a8565b92915050565b600080604083850312156122eb576122ea611dde565b5b60006122f98582860161202b565b925050602061230a858286016122bf565b9150509250929050565b600067ffffffffffffffff82111561232f5761232e612107565b5b61233882611ee9565b9050602081019050919050565b600061235861235384612314565b612167565b90508281526020810184848401111561237457612373612102565b5b61237f8482856121b3565b509392505050565b600082601f83011261239c5761239b6120fd565b5b81356123ac848260208601612345565b91505092915050565b600080600080608085870312156123cf576123ce611dde565b5b60006123dd8782880161202b565b94505060206123ee8782880161202b565b93505060406123ff87828801611f76565b925050606085013567ffffffffffffffff8111156124205761241f611de3565b5b61242c87828801612387565b91505092959194509250565b6000806040838503121561244f5761244e611dde565b5b600061245d8582860161202b565b925050602061246e8582860161202b565b9150509250929050565b7f4e487b7100000000000000000000000000000000000000000000000000000000600052602260045260246000fd5b600060028204905060018216806124bf57607f821691505b6020821081036124d2576124d1612478565b5b50919050565b7f4552433732315072657365743a2043616c6c6572206973206e6f74207468652060008201527f6f776e6572000000000000000000000000000000000000000000000000000000602082015250565b6000612534602583611eae565b915061253f826124d8565b604082019050919050565b6000602082019050818103600083015261256381612527565b9050919050565b60008190508160005260206000209050919050565b60006020601f8301049050919050565b600082821b905092915050565b6000600883026125cc7fffffffffffffffffffffffffffffffffffffffffffffffffffffffffffffffff8261258f565b6125d6868361258f565b95508019841693508086168417925050509392505050565b6000819050919050565b600061261361260e61260984611f55565b6125ee565b611f55565b9050919050565b6000819050919050565b61262d836125f8565b6126416126398261261a565b84845461259c565b825550505050565b600090565b612656612649565b612661818484612624565b505050565b5b818110156126855761267a60008261264e565b600181019050612667565b5050565b601f8211156126ca5761269b8161256a565b6126a48461257f565b810160208510156126b3578190505b6126c76126bf8561257f565b830182612666565b50505b505050565b600082821c905092915050565b60006126ed600019846008026126cf565b1980831691505092915050565b600061270683836126dc565b9150826002028217905092915050565b61271f82611ea3565b67ffffffffffffffff81111561273857612737612107565b5b61274282546124a7565b61274d828285612689565b600060209050601f831160018114612780576000841561276e578287015190505b61277885826126fa565b8655506127e0565b601f19841661278e8661256a565b60005b828110156127b657848901518255600182019150602085019450602081019050612791565b868310156127d357848901516127cf601f8916826126dc565b8355505b6001600288020188555050505b505050505050565b600081905092915050565b60006127fe82611ea3565b61280881856127e8565b9350612818818560208601611ebf565b80840191505092915050565b600061283082856127f3565b915061283c82846127f3565b91508190509392505050565b7f4552433732315072657365743a204e6577206f776e657220697320746865207a60008201527f65726f2061646472657373000000000000000000000000000000000000000000602082015250565b60006128a4602b83611eae565b91506128af82612848565b604082019050919050565b600060208201905081810360008301526128d381612897565b9050919050565b600081519050919050565b600082825260208201905092915050565b6000612901826128da565b61290b81856128e5565b935061291b818560208601611ebf565b61292481611ee9565b840191505092915050565b60006080820190506129446000830187611fea565b6129516020830186611fea565b61295e6040830185612080565b818103606083015261297081846128f6565b905095945050505050565b60008151905061298a81611e14565b92915050565b6000602082840312156129a6576129a5611dde565b5b60006129b48482850161297b565b91505092915050565b7f4e487b7100000000000000000000000000000000000000000000000000000000600052601160045260246000fd5b60006129f782611f55565b91507fffffffffffffffffffffffffffffffffffffffffffffffffffffffffffffffff8203612a2957612a286129bd565b5b600182019050919050565b7f4e487b7100000000000000000000000000000000000000000000000000000000600052601260045260246000fd5b6000612a6e82611f55565b9150612a7983611f55565b925082612a8957612a88612a34565b5b828204905092915050565b6000612a9f82611f55565b9150612aaa83611f55565b9250828203905081811115612ac257612ac16129bd565b5b92915050565b6000612ad382611f55565b9150612ade83611f55565b925082612aee57612aed612a34565b5b828206905092915050565b6000612b0482611f55565b9150612b0f83611f55565b9250828201905080821115612b2757612b266129bd565b5b92915050565b7f4e487b7100000000000000000000000000000000000000000000000000000000600052603260045260246000fdfea2646970667358221220ac70b351da86fde62f0b2b9b8d1c5c144fb52f6c4eb85282b541733665ea176464736f6c63430008150033a2646970667358221220b05be8e7678fee0864aa7faa04dafef1b53fd877249a79213c1694a14132b76b64736f6c63430008150033",
  "linkReferences": {},
  "deployedLinkReferences": {}
}